:1000CE002038080000000000000000FF080808FFAC
:1000DE00000E15150D007E0102007E0102000E11AC
:1000EE00110E007D00000000000000000000000066
:0B00FE000000000000000000000000F7
:10008F00754103E4F54212016EE4F540E540254168
:10009F002408F8E6FD7C00AF401201370540E5402B
:1000AF00C3940840E70542E542D3940A40DBE4F5E8
:0F00BF00420541E541D3942840CFE4F54180CA82
:10015900EF1FAC0670011E4C600A7D027CC7DCFEF5
:04016900DDFC80EC4D
:01016D00226F
:02010A00AD073F
:10010C00E4FB74807E00A803088006CEA2E713CE21
:10011C0013D8F8FFEDF582EF558224FF92B4D2B6D6
:0A012C00C2B60BBB08DCD2B5C2B5A9
:0101360022A6
:05016E00C2B6C2B5227B
:10013700AA07AF0512010AAF027480A80708800258
:10014700C313D8FCF4F5807F017E00120159758036
:02015700FF2285
:03000000020003F8
:0C000300787FE4F6D8FD75814202004AC7
:10000F0002008FE493A3F8E493A34003F68001F278
:10001F0008DFF48029E493A3F85407240CC8C333F2
:10002F00C4540F4420C8834004F456800146F6DFC1
:10003F00E4800B01020408102040809000CEE47E83
:10004F00019360BCA3FF543F30E509541FFEE493B6
:10005F00A360010ECF54C025E060A840B8E493A37D
:10006F00FAE493A3F8E493A3C8C582C8CAC583CAA8
:10007F00F0A3C8C582C8CAC583CADFE9DEE780BE60
:0101090000F5
:00000001FF
