:1004F50050617373776F72643A004F4B2100455218
:020505005200A2
:08052A00021A00000218000093
:10018C001204E17BFF7A0479F57D017F011204589A
:10019C001200038F1CE51C60F7D3940A5033051929
:1001AC00E519AE187002051814C39404EE940050AF
:1001BC0020AE1AAF1B7C007D0A1202878E1A8F1B91
:1001CC00E51C75F00A84E5F0251BF51BE4351AF5E2
:1001DC001A750C04AB1BAA1A7D017F02120499E557
:1001EC001C640B7036E51BB4290DE51AB409087BA9
:1001FC00FF7A0479FF80067BFF7A0579037D0E7FF9
:10020C0001120458E4F51AF51BF518F519750C04D0
:10021C00AB1BAA1A7D017F02120499E51C640C60C9
:10022C000302019C1204E17BFF7A0479F57D017FC6
:10023C0001120458E4F51AF51BF518F519750C04A0
:0E024C00AB1BAA1A7D017F0212049902019CCD
:1004CC00EF1FAC0670011E4C600A7D027CEFDCFE57
:0404DC00DDFC80ECD7
:0104E00022F9
:06050700C2A58F80D2A7FF
:08050D007F027EEFDEFEDFFC41
:0105150022C3
:0A051600C2A6120507C2A702050DD8
:10047B00CFCDCFCECCCE1202997C007D0A12029941
:04048B00ED2430FF2D
:0A048F00D2A6120507C2A702050D50
:1004B600AE07BE0104ED148006BE0209ED243F44DA
:0604C60080FF1205162262
:1004E1007F381205167F0C1205167F061205167F3E
:0404F10001020516E9
:0A052000AC031204B6AF0402048F0E
:060458008B088A09890AE5
:10045E001204B6E4FDAB08AA09A90A8D82758300C1
:0C046E0012025AFF600612048F0D80E994
:01047A00225F
:0C0425007F0AEA24FFFDE434FFFC7E00A7
:080431008E0D8F0E8C0F8D1053
:100439007F017E00E4FBEBC39510E50F6480F8743F
:0E0449008098500AAC0DAD0E1202870B80E8B1
:010457002282
:040499008A0A8B0B35
:10049D001204B6AA0CEAD39400400D120425AC0A3E
:0804AD00AD0B12047B1A80ED77
:0104B5002224
:10037A001204B6C3EA64809480400B7F2B12048F68
:10038A008A168B17800E7F2D12048FC3E49BF517F4
:10039A00E49AF516AA15EAD39400400D120425AC86
:0903AA0016AD1712047B1A80ED58
:0103B3002227
:0403B4008A1F8B20F1
:1003B8001204B6AA21EAD3940040297F1012042718
:1003C800AC1FAD20CFCDCFCECCCE120299EF540FBB
:1003D800FEC3940AEE5004243080022437FF12042E
:0403E8008F1A80D117
:0103EC0022EE
:0403ED008A248B25AE
:1003F1001204B6AA26EAD394004028EA24FFFDE4B9
:1004010034FFFC7F027E00120431AC24AD25CFCD38
:10041100CFCECCCE120299EF54012430FF12048FBB
:030421001A80D26C
:0104240022B5
:10000300E4F5087590FFC2932097137F14FE120442
:10001300CC3097FD7F147E001204CC750801209626
:10002300147F147E001204CC3096FD7F147E0012E0
:1000330004CC7508052095147F147E001204CC307F
:1000430095FD7F147E001204CC7508092094147F5B
:10005300147E001204CC3094FD7F147E001204CC75
:1000630075080D7590FFC2922097147F147E0012BD
:1000730004CC3097FD7F147E001204CC7508022057
:1000830096147F147E001204CC3096FD7F147E00FC
:100093001204CC7508062095147F147E001204CC3C
:1000A3003095FD7F147E001204CC75080A20941449
:1000B3007F147E001204CC3094FD7F147E00120462
:1000C300CC75080E7590FFC2912097147F147E00A3
:1000D3001204CC3097FD7F147E001204CC75080304
:1000E3002096147F147E001204CC3096FD7F147E7C
:1000F300001204CC7508072095147F147E001204A7
:10010300CC3095FD7F147E001204CC75080B20942F
:10011300147F147E001204CC3094FD7F147E0012F1
:1001230004CC75080F7590FFC2902097147F147E3E
:10013300001204CC3097FD7F147E001204CC7508A6
:10014300042096147F147E001204CC3096FD7F1495
:100153007E001204CC7508082095147F147E0012CB
:1001630004CC3095FD7F147E001204CC75080C205E
:1001730094147F147E001204CC3094FD7F147E000F
:080183001204CC750810AF084E
:01018B002251
:030000000202EE0B
:0C02EE00787FE4F6D8FD75812602033508
:10025A00BB010CE58229F582E5833AF583E0225059
:10026A0006E92582F8E622BBFE06E92582F8E222A3
:0D027A00E58229F582E5833AF583E49322BD
:10028700EF8DF0A4A8F0CF8CF0A428CE8DF0A42E8B
:02029700FE2245
:10029900BC000BBE0029EF8DF084FFADF022E4CC49
:1002A900F875F008EF2FFFEE33FEEC33FCEE9DEC12
:1002B900984005FCEE9DFE0FD5F0E9E4CEFD22ED58
:1002C900F8F5F0EE8420D21CFEADF075F008EF2FA2
:1002D900FFED33FD4007985006D5F0F222C398FD93
:0502E9000FD5F0EA2230
:1002FA0002018CE493A3F8E493A34003F68001F28D
:10030A0008DFF48029E493A3F85407240CC8C33304
:10031A00C4540F4420C8834004F456800146F6DFD3
:10032A00E4800B010204081020408090052AE47E34
:10033A00019360BCA3FF543F30E509541FFEE493C8
:10034A00A360010ECF54C025E060A840B8E493A38F
:10035A00FAE493A3F8E493A3C8C582C8CAC583CABA
:10036A00F0A3C8C582C8CAC583CADFE9DEE780BE72
:0105320000C8
:00000001FF
