:10015900E4FDFC7F01FE12008F1200F88F2AE52AC8
:1001690060F77F647E001201A6E52AFD7C007F010D
:070179007E0012008F80E2FE
:1001C800EF1FAC0670011E4C600A7D027CC7DCFE86
:0401D800DDFC80ECDE
:0101DC002200
:1000F800E4F52B20B1137F14FE1201C830B1FD7F47
:10010800147E001201C8752B0120B0147F147E00E4
:100118001201C830B0FD7F147E001201C8752B0291
:1001280020B2147F147E001201C830B2FD7F147E05
:10013800001201C8752B0320B3147F147E0012012E
:10014800C830B3FD7F147E001201C8752B04AF2B95
:010158002284
:10018000202208003F0006005B004F0066006D0063
:100190007D0007007F006F0077007C0039005E0063
:0501A000790071000070
:10008F00EE705BEF14B4080050549000A775F003A6
:10009F00A4C58325F0C583730200BF0200C302000D
:1000AF00C70200CB0200CF0200D70200DF0200E739
:1000BF00D2A4800ED2A48012D2A48016D2A4801A09
:1000CF00C2A4D2A3D2A28016C2A4D2A3C2A2800E6F
:1000DF00C2A4C2A3D2A28006C2A4C2A3C2A2ED250B
:0900EF00E02408F808E6F580227F
:0501DD00007FE3DFFEDE
:0101E20022FA
:0401A600AD07AC06EF
:1001AA00E4FBFAED25E0FFEC33FEC3EB9FEA9E5039
:0D01BA000CB2A51201DD0BBB00010A80E6AE
:0101C7002215
:03000000020003F8
:0C000300787FE4F6D8FD75812B02004ADE
:10000F00020159E493A3F8E493A34003F68001F2AD
:10001F0008DFF48029E493A3F85407240CC8C333F2
:10002F00C4540F4420C8834004F456800146F6DFC1
:10003F00E4800B0102040810204080900180E47ED0
:10004F00019360BCA3FF543F30E509541FFEE493B6
:10005F00A360010ECF54C025E060A840B8E493A37D
:10006F00FAE493A3F8E493A3C8C582C8CAC583CAA8
:10007F00F0A3C8C582C8CAC583CADFE9DEE780BE60
:0101A5000059
:00000001FF
