:10012700202208003F0006005B004F0066006D00BC
:100137007D0007007F006F0077007C0039005E00BC
:050147007900710000C9
:1000F800752A00752B01052BE52BAE2A7002052AFF
:1001080014FF7D067C0012008FE52B6409452A70D8
:0F01180005F52A752B017F647E0012014D80D7FB
:10008F00EE705BEF14B4080050549000A775F003A6
:10009F00A4C58325F0C583730200BF0200C302000D
:1000AF00C70200CB0200CF0200D70200DF0200E739
:1000BF00D2A4800ED2A48012D2A48016D2A4801A09
:1000CF00C2A4D2A3D2A28016C2A4D2A3C2A2800E6F
:1000DF00C2A4C2A3D2A28006C2A4C2A3C2A2ED250B
:0900EF00E02408F808E6F580227F
:10014D00EF1FAC0670011E4C600A7D027CEFDCFED9
:04015D00DDFC80EC59
:01016100227B
:03000000020003F8
:0C000300787FE4F6D8FD75812B02004ADE
:10000F000200F8E493A3F8E493A34003F68001F20F
:10001F0008DFF48029E493A3F85407240CC8C333F2
:10002F00C4540F4420C8834004F456800146F6DFC1
:10003F00E4800B0102040810204080900127E47E29
:10004F00019360BCA3FF543F30E509541FFEE493B6
:10005F00A360010ECF54C025E060A840B8E493A37D
:10006F00FAE493A3F8E493A3C8C582C8CAC583CAA8
:10007F00F0A3C8C582C8CAC583CADFE9DEE780BE60
:01014C0000B2
:00000001FF
