:10009A00204A230000F88CF8F3F95BF9B8FA15FA4C
:1000AA0067FAB9FB04FB4BFB90FBCFFC10FC44FC4A
:1000BA0079FCACFCDCFD09FD34FD5CFD82FDA6FD8E
:1000CA00C8FDE8FE06FE22FE3DFE56FE6EFE85FED9
:1000DA009AFEAEFEC1FED3FEE4FEF4FF0319080049
:1000EA000400040004160218041906180219041D53
:0800FA0004180C11021102FFB1
:1001460012017A74082521F8E6FFF460238F220550
:100156002174082521F8E675F07DA4FFAEF01201A2
:10016600910521C28C7F057E00120191D28C80D32D
:04017600C28C80FEB9
:03000B00020103EC
:10010300C0E0C0D075D000C000C004C005C006C0A8
:1001130007E52225E02423F8E6FE08E64E6015E510
:100123002225E02423F8E6FC08E6FDECF58CAF0578
:100133008F8AB2A5D007D006D005D004D000D0D086
:03014300D0E032D7
:10019100EF1FAC0670011E4C600A7D027CC7DCFEBD
:0401A100DDFC80EC15
:0101A5002237
:10017A005389F0438901758A66758CFCC28DD28CCD
:07018A00D2A9D2AFC2B922D5
:0300000002000EED
:0C000E00787FE4F6D8FD75816C02005587
:10001A00020146E493A3F8E493A34003F68001F2B5
:10002A0008DFF48029E493A3F85407240CC8C333E7
:10003A00C4540F4420C8834004F456800146F6DFB6
:10004A00E4800B010204081020408090009AE47EAC
:10005A00019360BCA3FF543F30E509541FFEE493AB
:10006A00A360010ECF54C025E060A840B8E493A372
:10007A00FAE493A3F8E493A3C8C582C8CAC583CA9D
:10008A00F0A3C8C582C8CAC583CADFE9DEE780BE55
:0101020000FC
:00000001FF
