:10009A00204A290000F88CF8F3F95BF9B8FA15FA46
:1000AA0067FAB9FB04FB4BFB90FBCFFC10FC44FC4A
:1000BA0079FCACFCDCFD09FD34FD5CFD82FDA6FD8E
:1000CA00C8FDE8FE06FE22FE3DFE56FE6EFE85FED9
:1000DA009AFEAEFEC1FED3FEE4FEF4FF031F080D36
:1000EA00040D04140414041604160414080004125B
:0E00FA00041204110411040F040F040D08FF7A
:10014C0012017E74082527F8E6FFF460238F28053A
:10015C002774082527F8E675F07DA4FFAEF0120190
:10016C00950527C28C7F057E00120195D28C80D319
:02017C0080FE03
:03000B00020109E6
:10010900C0E0C0D075D000C000C004C005C006C0A2
:1001190007E52825E02429F8E6FE08E64E6015E5FE
:100129002825E02429F8E6FC08E6FDECF58CAF0566
:100139008F8AB2A5D007D006D005D004D000D0D080
:03014900D0E032D1
:10019500EF1FAC0670011E4C600A7D027CC7DCFEB9
:0401A500DDFC80EC11
:0101A9002233
:10017E005389F0438901758A66758CFCC28DD28CC9
:07018E00D2A9D2AFC2B922D1
:0300000002000EED
:0C000E00787FE4F6D8FD75817202005581
:10001A0002014CE493A3F8E493A34003F68001F2AF
:10002A0008DFF48029E493A3F85407240CC8C333E7
:10003A00C4540F4420C8834004F456800146F6DFB6
:10004A00E4800B010204081020408090009AE47EAC
:10005A00019360BCA3FF543F30E509541FFEE493AB
:10006A00A360010ECF54C025E060A840B8E493A372
:10007A00FAE493A3F8E493A3C8C582C8CAC583CA9D
:10008A00F0A3C8C582C8CAC583CADFE9DEE780BE55
:0101080000F6
:00000001FF
