:10099C0020202D20202D20200020203A20203A201D
:0509AC002000202000E6
:0409E900021F0000E9
:1006F0001209C612000312096F7BFF7A09799C7DEB
:10070000017F011209117BFF7A0979A57D017F0222
:100710001209111202DD12068F8F22E52264017088
:100720001DE521D3940040047F0080027F018F21CA
:10073000E52170031202DDE5216003E4F523E521E4
:100740001460080470D012062680CB12000E80C6FA
:1006260012050DE518FB3395E0FA750C027D017F86
:1006360001120952E519FB3395E0FA750C027D04A7
:100646007F01120952E51AFB3395E0FA750C027D1B
:10065600077F01120952E51BFB3395E0FA750C0280
:100666007D017F02120952E51CFB3395E0FA750CF9
:10067600027D047F02120952E51DFB3395E0FA75EF
:090686000C027D077F02020952FB
:10000E00E522B4020B0523E52375F0068485F02363
:10001E00E522640360030200E874182523F806D372
:10002E00E518648094E34003E4F518D3E519648081
:10003E00948C4003751901E51964016023E5196478
:10004E0003601DE51964056017E51964076011E585
:10005E00196408600BE519640A6005E519B40C0B08
:10006E00D3E51A6480949F404D8048E5196404607E
:10007E0011E5196406600BE51964096005E519B40C
:10008E000B0BD3E51A6480949E402B8026E519B4A1
:10009E000224E51875F004120457AFF0EF700BD37D
:1000AE00E51A6480949D400E8009D3E51A6480940D
:1000BE009C4003751A01D3E51B648094974003E4BA
:1000CE00F51BD3E51C648094BB4003E4F51CD3E51B
:1000DE001D648094BB4003E4F51DE52264046003B7
:1000EE000201E374182523F816C3E5186480948082
:1000FE005003751863C3E519648094815003751914
:10010E000CE51964016023E5196403601DE51964AB
:10011E00056017E51964076011E5196408600BE5C1
:10012E0019640A6005E519B40C17C3E51A648094C6
:10013E00815003751A1FD3E51A6480949F40728014
:10014E006DE51964046011E5196406600BE5196428
:10015E00096005E519B40B17C3E51A648094815044
:10016E0003751A1ED3E51A6480949E4044803FE5C1
:10017E00196402703CE51875F004120457AFF0EFE5
:10018E007017C3E51A648094815003751A1DD3E568
:10019E001A6480949D401A8015C3E51A6480948178
:1001AE005003751A1CD3E51A6480949C4003751A8B
:1001BE0001C3E51B648094805003751B17C3E51CB7
:1001CE00648094805003751C3BC3E51D648094804D
:1001DE005003751D3BE5237014E524B4010F7BFF1E
:1001EE007A0979AE7D017F011209118011E518FBA4
:1001FE003395E0FA750C027D017F01120952E52359
:10020E00B40114E524B4010F7BFF7A0979AE7D04A5
:10021E007F011209118011E519FB3395E0FA750C77
:10022E00027D047F01120952E523B40214E524B4C1
:10023E00010F7BFF7A0979AE7D077F0112091180CC
:10024E0011E51AFB3395E0FA750C027D077F01125A
:10025E000952E523B40314E524B4010F7BFF7A0998
:10026E0079AE7D017F021209118011E51BFB3395DA
:10027E00E0FA750C027D017F02120952E523B404E7
:10028E0014E524B4010F7BFF7A0979AE7D047F0259
:10029E001209118011E51CFB3395E0FA750C027DF5
:1002AE00047F02120952E523B40512E524B4010DB0
:1002BE007BFF7A0979AE7D077F02020911E51DFBEE
:0F02CE003395E0FA750C027D077F021209522268
:03000B00020834B4
:09083400C0E0C0D075D000C0077F
:10083D00758CFC758A660520E5207002051FC39432
:10084D00F4E51F94014012751F00752000E524701A
:09085D00047F0180027F008F245A
:07086600D007D0D0D0E03232
:0609DA00C2A58F80D2A728
:0809E0007F027EEFDEFEDFFC6A
:0109E80022EC
:0A09F700C2A61209DAC2A70209E045
:10093400CFCDCFCECCCE1204B87C007D0A1204B841
:04094400ED2430FF6F
:0A094800D2A61209DAC2A70209E0E4
:10098600AE07BE0104ED148006BE0209ED243F4405
:0609960080FF1209F722A8
:1009C6007F381209F77F0C1209F77F061209F77FA5
:0409D600010209F71A
:0A0A0100AC03120986AF0402094895
:060911008B088A09890A27
:10091700120986E4FDAB08AA09A90A8D827583002E
:0C092700120479FF60061209480D80E9F7
:0109330022A1
:0C08DE007F0AEA24FFFDE434FFFC7E00EA
:0808EA008E0D8F0E8C0F8D1096
:1008F2007F017E00E4FBEBC39510E50F6480F87482
:0E0902008098500AAC0DAD0E1204A60B80E8D2
:0109100022C4
:040952008A0A8B0B77
:10095600120986AA0CEAD39400400D1208DEAC0AEE
:08096600AD0B1209341A80EDFB
:01096E002266
:1007FA00120986C3EA64809480400B7F2B12094851
:10080A008A168B17800E7F2D120948C3E49BF517B1
:10081A00E49AF516AA15EAD39400400D1208DEAC44
:09082A0016AD171209341A80ED15
:0108330022A2
:04086D008A278B2823
:10087100120986AA29EAD3940040297F101208E0C0
:10088100AC27AD28CFCDCFCECCCE1204B8EF540FCC
:10089100FEC3940AEE5004243080022437FF12096B
:0408A100481A80D1A0
:0108A5002230
:0408A6008A2C8B2DE0
:1008AA00120986AA2EEAD394004028EA24FFFDE41E
:1008BA0034FFFC7F027E001208EAAC2CAD2DCFCDAE
:1008CA00CFCECCCE1204B8EF54012430FF1209481F
:0308DA001A80D2AF
:0108DD0022F8
:0909ED00071817070C113B370332
:05000300C2B6C2B522E7
:050750002DFDEE3CFC54
:060755008C088D09AB07C2
:10075B00D2B5E4FD74017E00A805088005C333CE35
:10076B0033CED8F9FFEBF582EF558224FF92B4D24A
:10077B00B6C2B60DBD08DDE4FD74017E00A8050808
:10078B008005C333CE33CED8F9FFE5085EFEE5090D
:10079B005F4E24FF92B4D2B6C2B60DBD08DBC2B514
:0107AB00222B
:0207AC00AD0797
:1007AE00E4F9430501D2B5FB74017E00A80308806D
:1007BE0005C333CE33CED8F9FFEDF582EF55822443
:1007CE00FF92B4C2B6D2B60BBB08DDE4FBD2B6C202
:1007DE00B630B40D7401A803088002C333D8FC42AE
:0B07EE00010BBB08E8C2B5C2B4AF01AC
:0107F90022DD
:1002DD00E4FDFC7F8E120755E51875F00A120457E0
:1002ED00FF3395E0FEEFC4F8540FC868FFEEC45419
:1002FD00F048FEE51875F00A120457ADF0ED339590
:10030D00E0FCEF7F8C120750E51975F00A120457C7
:10031D00FF3395E0FEEFC4F8540FC868FFEEC454E8
:10032D00F048FEE51975F00A120457ADF0ED33955E
:10033D00E0FCEF7F88120750E51A75F00A1204579A
:10034D00FF3395E0FEEFC4F8540FC868FFEEC454B8
:10035D00F048FEE51A75F00A120457ADF0ED33952D
:10036D00E0FCEF2DFDEE3CFC7F86120755E51B757D
:10037D00F00A120457FF3395E0FEEFC4F8540FC88E
:10038D0068FFEEC454F048FEE51B75F00A120457E1
:10039D00ADF0ED3395E0FCEF2DFDEE3CFC7F8412CE
:1003AD000755E51C75F00A120457FF3395E0FEEF73
:1003BD00C4F8540FC868FFEEC454F048FEE51C7530
:1003CD00F00A120457ADF0ED3395E0FCEF2DFDEE84
:1003DD003CFC7F82120755E51D75F00A120457FF8C
:1003ED003395E0FEEFC4F8540FC868FFEEC454F027
:1003FD0048FEE51D75F00A120457ADF0ED3395E09A
:10040D00FCEF2DFDEE3CFC7F80120755E51E75F0CF
:10041D000A120457FF3395E0FEEFC4F8540FC86875
:10042D00FFEEC454F048FEE51E75F00A120457ADF8
:10043D00F0ED3395E0FCEF2DFDEE3CFC7F8A1207CD
:0A044D00557D807C007F8E0207556C
:10050D007F8C1207ACEFC4540F75F00AA4FEEF54A4
:10051D000F2EF5187F881207ACEFC4540F75F00A33
:10052D00A4FEEF540F2EF5197F861207ACEFC454BD
:10053D000F75F00AA4FEEF540F2EF51A7F841207E3
:10054D00ACEFC4540F75F00AA4FEEF540F2EF51B3B
:10055D007F821207ACEFC4540F75F00AA4FEEF545E
:10056D000F2EF51C7F801207ACEFC4540F75F00AE7
:10057D00A4FEEF540F2EF51D7F8A1207ACEFC45465
:0C058D000F75F00AA4FEEF540F2EF51EAF
:01059900223F
:1009B100EF1FAC0670011E4C600A7D027CC7DCFE95
:0409C100DDFC80ECED
:0109C500220F
:10068F00E4F50820B1137F14FE1209B130B1FD7FDC
:10069F00147E001209B175080120B0147F147E007A
:1006AF001209B130B0FD7F147E001209B175080236
:1006BF0020B2147F147E001209B130B2FD7F147E78
:1006CF00001209B175080320B3147F147E001209BC
:1006DF00B130B3FD7F147E001209B1750804AF0865
:0106EF0022E8
:10096F005389F0438901758A66758CFCC28DD28CD0
:07097F00D2A9D2AFC2B922D8
:0300000002059A5C
:0C059A00787FE4F6D8FD75812E0205E1A3
:10045700C2D530F707B2D563F0FF05F030E70CB22D
:10046700D5F4048463F0FF05F080018430D502F4ED
:0204770004225D
:10047900BB010CE58229F582E5833AF583E0225038
:1004890006E92582F8E622BBFE06E92582F8E22282
:0D049900E58229F582E5833AF583E493229C
:1004A600EF8DF0A4A8F0CF8CF0A428CE8DF0A42E6A
:0204B600FE2224
:1004B800BC000BBE0029EF8DF084FFADF022E4CC28
:1004C800F875F008EF2FFFEE33FEEC33FCEE9DECF1
:1004D800984005FCEE9DFE0FD5F0E9E4CEFD22ED37
:1004E800F8F5F0EE8420D21CFEADF075F008EF2F81
:1004F800FFED33FD4007985006D5F0F222C398FD72
:050508000FD5F0EA220E
:1005A6000206F0E493A3F8E493A34003F68001F275
:1005B60008DFF48029E493A3F85407240CC8C33356
:1005C600C4540F4420C8834004F456800146F6DF25
:1005D600E4800B01020408102040809009E9E47EC3
:1005E600019360BCA3FF543F30E509541FFEE4931A
:1005F600A360010ECF54C025E060A840B8E493A3E1
:10060600FAE493A3F8E493A3C8C582C8CAC583CA0B
:10061600F0A3C8C582C8CAC583CADFE9DEE780BEC3
:0109F6000000
:00000001FF
