:10010500202208003F0006005B004F0066006D00DE
:100115007D0007007F006F0077007C0039005E00DE
:050125007900710000EB
:10012B007D017F0112008F7D027F0212008F7D0304
:0B013B007C007F037E0012009380E533
:04008F007C007E0073
:10009300EE705BEF14B4080050549000AB75F0039E
:1000A300A4C58325F0C583730200C30200C7020001
:1000B300CB0200CF0200D30200DB0200E30200EB1D
:1000C300D2A4800ED2A48012D2A48016D2A4801A05
:1000D300C2A4D2A3D2A28016C2A4D2A3C2A2800E6B
:1000E300C2A4C2A3D2A28006C2A4C2A3C2A2ED2507
:1000F300E02408F808E6F580E4FFFE120146E4F583
:02010300802258
:10014600EF1FAC0670011E4C600A7D027CEFDCFEE0
:04015600DDFC80EC60
:01015A002282
:03000000020003F8
:0C000300787FE4F6D8FD75812902004AE0
:10000F0002012BE493A3F8E493A34003F68001F2DB
:10001F0008DFF48029E493A3F85407240CC8C333F2
:10002F00C4540F4420C8834004F456800146F6DFC1
:10003F00E4800B0102040810204080900105E47E4B
:10004F00019360BCA3FF543F30E509541FFEE493B6
:10005F00A360010ECF54C025E060A840B8E493A37D
:10006F00FAE493A3F8E493A3C8C582C8CAC583CAA8
:10007F00F0A3C8C582C8CAC583CADFE9DEE780BE60
:01012A0000D4
:00000001FF
