:10000E001203CC1204348F34E534B4010CE5337092
:10001E00047F0180027F008F33E534B40207E4F5DC
:10002E0031F530F532E53464037033E531FD7C0093
:10003E00E4FF12036D7F057E001203F9E530FD7CAF
:10004E00007F0112036D7F057E001203F9E532FD7C
:10005E007C007F0212036D7F057E001203F9E534EA
:10006E00B40415E4FF1202C28F317F011202C28F57
:10007E00307F021202C28F32E53175F00A84FD7CA8
:10008E00007F017E00120003E53175F00A84E5F071
:10009E00FD7C007F027E001200037D0B7C007F033F
:1000AE007E00120003E53075F00A84FD7C007F04AB
:1000BE007E00120003E53075F00A84E5F0FD7C0049
:1000CE007F057E001200037D0B7C007F067E0012F2
:1000DE000003E53275F00A84FD7C007F077E001276
:1000EE000003E53275F00A84E5F0FD7C007F087EA2
:0700FE0000120003020011D3
:1002F200E53360240532E532D39463401BE4F532E2
:100302000530E530D3943B400FE4F5300531E5315B
:09031200D3943B4003E4F53122D1
:03000B00020105EA
:10010500C0E0C0F0C083C082C0D075D000C000C0C0
:0D01150001C002C003C004C005C006C00741
:10012200758CFC758A66052BE52B7002052AC39433
:1001320014E52A94004009752A00752B00120289E1
:10014200052DE52D7002052CC39402E52C94004088
:1001520009752C00752D001203AF052FE52F7002D3
:10016200052EC3940AE52E94004009752E00752FC2
:04017200001202F283
:10017600D007D006D005D004D003D002D001D000DD
:0B018600D0D0D082D083D0F0D0E03287
:1003F900EF1FAC0670011E4C600A7D027CC7DCFE53
:04040900DDFC80ECAA
:01040D0022CC
:05043400AF37E4F537CD
:0104390022A0
:1003E300E4FF20B1010F20B0027F0220B2027F039D
:0503F30020B3027F04AD
:0103F80022E2
:100289008535361203E38F35E536B40107E5357058
:1002990003753701E536B40207E535700375370292
:1002A900E536B40307E5357003753703E536B4045D
:0802B90007E5357003753704F9
:0102C100221A
:10031B000909000A0A0A0A0A0A0A0A1812003F0007
:10032B0006005B004F0066006D007D0007007F003C
:08033B006F0000004001080101
:0700030074092FF8A6052285
:10021D00E4F580EE705BEF14B40800505490023892
:10022D0075F003A4C58325F0C58373020250020245
:10023D005402025802025C0202600202680202705D
:10024D00020278D2A4800ED2A48012D2A48016D23B
:10025D00A4801AC2A4D2A3D2A28016C2A4D2A3C2D1
:10026D00A2800EC2A4C2A3D2A28006C2A4C2A3C2FF
:0C027D00A2ED25E02412F808E6F580222E
:1003AF00AF087E0074092508F8E6FD7C0012021DD7
:0C03BF000508E508D39408400375080108
:0103CB00220F
:1003CC005389F0438901758A66758CFCC28DD28C79
:0703DC00D2A9D2AFC2B92281
:10036D008F388C398D3A1204247FA0120344120465
:10037D000EAF3812034412040EAF3A1203441204A6
:04038D000E02042D2B
:0202C2008F3873
:1002C4001204247FA012034412040EAF3812034414
:1002D40012040E1204247FA112034412040E12030A
:0D02E400918F397F0112041A12042DAF39D9
:0102F10022EA
:09042400D2A0D2A1C2A0C2A12203
:07042D00C2A0D2A1D2A0225F
:02034400AD0703
:10034600E4FB74807E00A803088006CEA2E713CEE5
:1003560013D8F8FFEDF582EF558224FF92A0D2A1C3
:06036600C2A10BBB08DC84
:01036C00226E
:10039100E4FFD2A0FED2A130A00D7480A80608808F
:0D03A10002C313D8FC4207C2A10EBE08E83B
:0103AE00222C
:0A041A00EF24FF92A0D2A1C2A1229C
:0B040E00D2A0D2A1A2A0E433FFC2A143
:0104190022C0
:0300000002019169
:0C019100787FE4F6D8FD75813A0201D8B1
:10019D0002000EE493A3F8E493A34003F68001F26A
:1001AD0008DFF48029E493A3F85407240CC8C33363
:1001BD00C4540F4420C8834004F456800146F6DF32
:1001CD00E4800B010204081020408090031BE47EA4
:1001DD00019360BCA3FF543F30E509541FFEE49327
:1001ED00A360010ECF54C025E060A840B8E493A3EE
:1001FD00FAE493A3F8E493A3C8C582C8CAC583CA19
:10020D00F0A3C8C582C8CAC583CADFE9DEE780BED0
:0103430000B9
:00000001FF
