:0201AB0080FED4
:10019600EF1FAC0670011E4C600A7D027CC7DCFEB8
:0401A600DDFC80EC10
:0101AA002232
:1000F800E4F52A20B1137F14FE12019630B1FD7F7A
:10010800147E00120196752A0120B0147F147E0017
:1001180012019630B0FD7F147E00120196752A02F6
:1001280020B2147F147E0012019630B2FD7F147E37
:1001380000120196752A0320B3147F147E00120161
:100148009630B3FD7F147E00120196752A04AF2AFB
:010158002284
:10015900202208003F0006005B004F0066006D008A
:100169007D0007007F006F0077007C0039005E008A
:05017900790071000097
:10008F00EE705BEF14B4080050549000A775F003A6
:10009F00A4C58325F0C583730200BF0200C302000D
:1000AF00C70200CB0200CF0200D70200DF0200E739
:1000BF00D2A4800ED2A48012D2A48016D2A4801A09
:1000CF00C2A4D2A3D2A28016C2A4D2A3C2A2800E6F
:1000DF00C2A4C2A3D2A28006C2A4C2A3C2A2ED250B
:0900EF00E02408F808E6F580227F
:10017F005389F0438901758A66758CFCC28DD28CC8
:07018F00D2A9D2AFC2B922D0
:03000000020003F8
:0C000300787FE4F6D8FD75812A02004ADF
:10000F000201ABE493A3F8E493A34003F68001F25B
:10001F0008DFF48029E493A3F85407240CC8C333F2
:10002F00C4540F4420C8834004F456800146F6DFC1
:10003F00E4800B0102040810204080900159E47EF7
:10004F00019360BCA3FF543F30E509541FFEE493B6
:10005F00A360010ECF54C025E060A840B8E493A37D
:10006F00FAE493A3F8E493A3C8C582C8CAC583CAA8
:10007F00F0A3C8C582C8CAC583CADFE9DEE780BE60
:01017E000080
:00000001FF
