:06031E0068656C6C6F00C5
:100139001202DB1203247BFF7A03791E7D017F0102
:10014900120252E4FDFC7F8E1200977D037C007F32
:10015900801200977F811200EE8F22EFFB7A0075E3
:0B0169000C037D017F021201AE80E953
:0602EF00C2A58F80D2A71A
:0802F5007F027EEFDEFEDFFC5C
:0102FD0022DE
:0A030A00C2A61202EFC2A70202F51C
:10027500CFCDCFCECCCE1200427C007D0A120042FB
:04028500ED2430FF35
:0A028900D2A61202EFC2A70202F58E
:1002B000AE07BE0104ED148006BE0209ED243F44E2
:0602C00080FF12030A2278
:1002DB007F3812030A7F0C12030A7F0612030A7F70
:0402EB000102030AFF
:0A031400AC031202B0AF040202892C
:060252008B088A09890AED
:100258001202B0E4FDAB08AA09A90A8D82758300D1
:0C026800120003FF60061202890D80E9FD
:010274002267
:0C021F007F0AEA24FFFDE434FFFC7E00AF
:08022B008E0D8F0E8C0F8D105B
:100233007F017E00E4FBEBC39510E50F6480F87447
:0E0243008098500AAC0DAD0E1200300B80E812
:01025100228A
:040293008A1A8B1B1D
:100297001202B0AA1CEAD39400400D12021FAC1A36
:0802A700AD1B1202751A80ED77
:0102AF00222C
:100174001202B0C3EA64809480400B7F2B12028980
:100184008A168B17800E7F2D120289C3E49BF51704
:10019400E49AF516AA15EAD39400400D12021FAC96
:0901A40016AD171202751A80ED68
:0101AD00222F
:0401AE008A0A8B0B23
:1001B2001202B0AA0CEAD3940040297F1012022145
:1001C200AC0AAD0BCFCDCFCECCCE120042EF540F46
:1001D200FEC3940AEE5004243080022437FF120238
:0401E200891A80D125
:0101E60022F6
:0401E7008A1F8B20C0
:1001EB001202B0AA21EAD394004028EA24FFFDE4CE
:1001FB0034FFFC7F027E0012022BAC1FAD20CFCD53
:10020B00CFCECCCE120042EF54012430FF12028924
:03021B001A80D274
:01021E0022BD
:05032400C2B6C2B522C3
:060097008C088D09AB0787
:10009D00D2B5E4FD74017E00A805088005C333CEFA
:1000AD0033CED8F9FFEBF582EF558224FF92B4D20F
:1000BD00B6C2B60DBD08DDE4FD74017E00A80508CD
:1000CD008005C333CE33CED8F9FFE5085EFEE509D2
:1000DD005F4E24FF92B4D2B6C2B60DBD08DBC2B5D9
:0100ED0022F0
:0200EE00A90760
:1000F000E4FDD2B5FB74017E00A803088005C3337C
:10010000CE33CED8F9FFE9F582EF558224FF92B4C1
:10011000C2B6D2B60BBB08DDE4FBD2B6C2B630B471
:100120000D7401A803088002C333D8FC42050BBB41
:0801300008E8C2B5C2B4AF0536
:0101380022A4
:1002C600EF1FAC0670011E4C600A7D027CC7DCFE87
:0402D600DDFC80ECDF
:0102DA002201
:030000000202FEFB
:0C02FE00787FE4F6D8FD758122020139FA
:10000300BB010CE58229F582E5833AF583E02250B2
:1000130006E92582F8E622BBFE06E92582F8E222FC
:0D002300E58229F582E5833AF583E4932216
:10003000EF8DF0A4A8F0CF8CF0A428CE8DF0A42EE4
:02004000FE229E
:10004200BC000BBE0029EF8DF084FFADF022E4CCA2
:10005200F875F008EF2FFFEE33FEEC33FCEE9DEC6B
:10006200984005FCEE9DFE0FD5F0E9E4CEFD22EDB1
:10007200F8F5F0EE8420D21CFEADF075F008EF2FFB
:10008200FFED33FD4007985006D5F0F222C398FDEC
:050092000FD5F0EA2289
:00000001FF
