:0603210068656C6C6F00C2
:100135001202DE1203277BFF7A0379217D017F01FD
:10014500120255E4FDFC7F8E1200977D037C007F33
:10015500801200977F811200EE8F22EFFB7A0075E7
:100165000C037D017F021202967FE87E031202C90D
:0201750080E226
:0602F200C2A58F80D2A717
:0802F8007F027EEFDEFEDFFC59
:0103000022DA
:0A030D00C2A61202F2C2A70202F813
:10027800CFCDCFCECCCE1200427C007D0A120042F8
:04028800ED2430FF32
:0A028C00D2A61202F2C2A70202F885
:1002B300AE07BE0104ED148006BE0209ED243F44DF
:0602C30080FF12030D2272
:1002DE007F3812030D7F0C12030D7F0612030D7F64
:0402EE000102030DF9
:0A031700AC031202B3AF0402028C23
:060255008B088A09890AEA
:10025B001202B3E4FDAB08AA09A90A8D82758300CB
:0C026B00120003FF600612028C0D80E9F7
:010277002264
:0C0222007F0AEA24FFFDE434FFFC7E00AC
:08022E008E0D8F0E8C0F8D1058
:100236007F017E00E4FBEBC39510E50F6480F87444
:0E0246008098500AAC0DAD0E1200300B80E80F
:010254002287
:040296008A0A8B0B3A
:10029A001202B3AA0CEAD39400400D120222AC0A4D
:0802AA00AD0B1202781A80ED81
:0102B2002229
:100177001202B3C3EA64809480400B7F2B12028C77
:100187008A168B17800E7F2D12028CC3E49BF517FE
:10019700E49AF516AA15EAD39400400D120222AC90
:0901A70016AD171202781A80ED62
:0101B000222C
:0401B1008A1A8B1B00
:1001B5001202B3AA1CEAD3940040297F101202242C
:1001C500AC1AAD1BCFCDCFCECCCE120042EF540F23
:1001D500FEC3940AEE5004243080022437FF120235
:0401E5008C1A80D11F
:0101E90022F3
:0401EA008A1F8B20BD
:1001EE001202B3AA21EAD394004028EA24FFFDE4C8
:1001FE0034FFFC7F027E0012022EAC1FAD20CFCD4D
:10020E00CFCECCCE120042EF54012430FF12028C1E
:03021E001A80D271
:0102210022BA
:05032700C2B6C2B522C0
:060097008C088D09AB0787
:10009D00D2B5E4FD74017E00A805088005C333CEFA
:1000AD0033CED8F9FFEBF582EF558224FF92B4D20F
:1000BD00B6C2B60DBD08DDE4FD74017E00A80508CD
:1000CD008005C333CE33CED8F9FFE5085EFEE509D2
:1000DD005F4E24FF92B4D2B6C2B60DBD08DBC2B5D9
:0100ED0022F0
:0200EE00A90760
:1000F000E4FDD2B5FB74017E00A803088005C3337C
:10010000CE33CED8F9FFE9F582EF558224FF92B4C1
:10011000C2B6D2B60BBB08DDE4FBD2B6C2B630B471
:100120000D7401A803088002C333D8FC42050BBB41
:0401300008E8AF0527
:0101340022A8
:1002C900EF1FAC0670011E4C600A7D027CC7DCFE84
:0402D900DDFC80ECDC
:0102DD0022FE
:03000000020301F7
:0C030100787FE4F6D8FD758122020135FA
:10000300BB010CE58229F582E5833AF583E02250B2
:1000130006E92582F8E622BBFE06E92582F8E222FC
:0D002300E58229F582E5833AF583E4932216
:10003000EF8DF0A4A8F0CF8CF0A428CE8DF0A42EE4
:02004000FE229E
:10004200BC000BBE0029EF8DF084FFADF022E4CCA2
:10005200F875F008EF2FFFEE33FEEC33FCEE9DEC6B
:10006200984005FCEE9DFE0FD5F0E9E4CEFD22EDB1
:10007200F8F5F0EE8420D21CFEADF075F008EF2FFB
:10008200FFED33FD4007985006D5F0F222C398FDEC
:050092000FD5F0EA2289
:00000001FF
