:0E036000436C6F636B3A0020203A20203A0075
:0D036E00011A00011C00011B000218000014
:10012E0012033D1202FB7BFF7A0379607D017F0192
:10013E0012029D7BFF7A0379677D017F0212029D79
:10014E00E51BFB7A00750C027D017F021202DEE5D3
:10015E001CFB7A00750C027D047F021202DEE51A8A
:0F016E00FB7A00750C027D077F021202DE80D142
:03000B0002017D72
:04017D00C0E0C0D04E
:10018100758CFC758A660519E51970020518C3940A
:10019100E8E51894034022751800751900051AE561
:1001A1001AB43C05751A00051CE51CB43C05751C08
:0901B10000051B751B18751B00ED
:0501BA00D0D0D0E032BE
:06035100C2A58F80D2A7B7
:080357007F027EEFDEFEDFFCF9
:01035F00227B
:0A037C00C2A6120351C2A7020357E4
:1002C000CFCDCFCECCCE12004D7C007D0A12004D9A
:0402D000ED2430FFEA
:0A02D400D2A6120351C2A70203577D
:10031200AE07BE0104ED148006BE0209ED243F447F
:0603220080FF12037C22A3
:10033D007F3812037C7F0C12037C7F0612037C7FB7
:04034D000102037C2A
:0A038600AC03120312AF040202D40C
:06029D008B088A09890AA2
:1002A300120312E4FDAB08AA09A90A8D8275830023
:0C02B30012000EFF60061202D40D80E95C
:0102BF00221C
:0C026A007F0AEA24FFFDE434FFFC7E0064
:080276008E0D8F0E8C0F8D1010
:10027E007F017E00E4FBEBC39510E50F6480F874FC
:0E028E008098500AAC0DAD0E12003B0B80E8BC
:01029C00223F
:0402DE008A0A8B0BF2
:1002E200120312AA0CEAD39400400D12026AAC0A5D
:0802F200AD0B1202C01A80EDF1
:0102FA0022E1
:1001BF00120312C3EA64809480400B7F2B1202D487
:1001CF008A168B17800E7F2D1202D4C3E49BF5176E
:1001DF00E49AF516AA15EAD39400400D12026AAC00
:0901EF0016AD171202C01A80EDD2
:0101F80022E4
:0401F9008A1F8B20AE
:1001FD00120312AA21EAD3940040297F1012026C37
:10020D00AC1FAD20CFCDCFCECCCE12004DEF540FC5
:10021D00FEC3940AEE5004243080022437FF1202EC
:04022D00D41A80D18E
:0102310022AA
:040232008A248B256A
:10023600120312AA26EAD394004028EA24FFFDE41A
:1002460034FFFC7F027E00120276AC24AD25CFCDB2
:10025600CFCECCCE12004DEF54012430FF1202D483
:030266001A80D229
:010269002272
:10032800EF1FAC0670011E4C600A7D027CC7DCFE24
:04033800DDFC80EC7C
:01033C00229E
:1002FB005389F0438901758A66758CFCC28DD28C4B
:07030B00D2A9D2AFC2B92252
:030000000200A259
:0C00A200787FE4F6D8FD7581260200E9A5
:10000E00BB010CE58229F582E5833AF583E02250A7
:10001E0006E92582F8E622BBFE06E92582F8E222F1
:0D002E00E58229F582E5833AF583E493220B
:10003B00EF8DF0A4A8F0CF8CF0A428CE8DF0A42ED9
:02004B00FE2293
:10004D00BC000BBE0029EF8DF084FFADF022E4CC97
:10005D00F875F008EF2FFFEE33FEEC33FCEE9DEC60
:10006D00984005FCEE9DFE0FD5F0E9E4CEFD22EDA6
:10007D00F8F5F0EE8420D21CFEADF075F008EF2FF0
:10008D00FFED33FD4007985006D5F0F222C398FDE1
:05009D000FD5F0EA227E
:1000AE0002012EE493A3F8E493A34003F68001F239
:1000BE0008DFF48029E493A3F85407240CC8C33353
:1000CE00C4540F4420C8834004F456800146F6DF22
:1000DE00E4800B010204081020408090036EE47E41
:1000EE00019360BCA3FF543F30E509541FFEE49317
:1000FE00A360010ECF54C025E060A840B8E493A3DE
:10010E00FAE493A3F8E493A3C8C582C8CAC583CA08
:10011E00F0A3C8C582C8CAC583CADFE9DEE780BEC0
:01037B000081
:00000001FF
