:100101007D027C007F017E0012008F7D037C007FD9
:10011100027E0012008F7D037C007F037E001200AF
:100121008F7D037C007F047E0012008F7D037C00A5
:100131007F057E0012008F7D037C007F067E00120A
:04014100008F80BCEF
:10016B00EF1FAC0670011E4C600A7D027CEFDCFEBB
:04017B00DDFC80EC3B
:01017F00225D
:10014500202208003F0006005B004F0066006D009E
:100155007D0007007F006F0077007C0039005E009E
:050165007900710000AB
:10008F00EE705BEF14B4080050549000A775F003A6
:10009F00A4C58325F0C583730200BF0200C302000D
:1000AF00C70200CB0200CF0200D70200DF0200E739
:1000BF00D2A4800ED2A48012D2A48016D2A4801A09
:1000CF00C2A4D2A3D2A28016C2A4D2A3C2A2800E6F
:1000DF00C2A4C2A3D2A28006C2A4C2A3C2A2ED250B
:1000EF00E02408F808E6F580E4FFFE12016BE4F562
:0200FF0080225D
:03000000020003F8
:0C000300787FE4F6D8FD75812902004AE0
:10000F00020101E493A3F8E493A34003F68001F205
:10001F0008DFF48029E493A3F85407240CC8C333F2
:10002F00C4540F4420C8834004F456800146F6DFC1
:10003F00E4800B0102040810204080900145E47E0B
:10004F00019360BCA3FF543F30E509541FFEE493B6
:10005F00A360010ECF54C025E060A840B8E493A37D
:10006F00FAE493A3F8E493A3C8C582C8CAC583CAA8
:10007F00F0A3C8C582C8CAC583CADFE9DEE780BE60
:01016A000094
:00000001FF
