:10000300E4F508F50975A0FE20B12F12007030B198
:10001300FD1200700509E50970020508C39408E59F
:100023000894004005E4F508F509AF097401A80731
:10003300088002C333D8FCF4F5A020B0CB120070C3
:1000430030B0FD120070E50945087007F508750921
:10005300078008E509150970021508AF097401A89E
:0D00630007088002C333D8FCF4F5A0809B91
:040070007F147E007B
:10007400EF1FAC0670011E4C600A7D027CEFDCFEB3
:04008400DDFC80EC33
:010088002255
:0300000002008972
:0C008900787FE4F6D8FD758109020003C1
:00000001FF
