:100355005772697465204F4B0020202020202020F3
:10036500200052656164204F4B0020202020202072
:02037500200066
:100003001203FB750C05AB23AA227D017F011203AA
:10001300B31201768F24E524B401150523E523707B
:10002300020522750C05FBAA227D017F011203B391
:10003300E524B40216E523152370021522750C0579
:10004300AB23AA227D017F011203B3E5246403706D
:1000530040FCAD23FF12030E7F057E001203E6E58D
:1000630022FD7C007F0112030E7F057E001203E652
:100073007BFF7A0379557D017F021203327FE87E8D
:10008300031203E67BFF7A03795E7D017F0212038D
:1000930032E52464046003020014FF1202B57522E2
:1000A300008F237F011202B5EFFEEE4222750C058D
:1000B300AB23AA227D017F011203B37BFF7A03796D
:1000C300677D017F021203327FE87E031203E67B22
:0F00D300FF7A03796F7D017F021203320200145E
:1003E600EF1FAC0670011E4C600A7D027CC7DCFE66
:0403F600DDFC80ECBE
:0103FA0022E0
:10017600E4F50820B1137F14FE1203E630B1FD7FCB
:10018600147E001203E675080120B0147F147E0069
:100196001203E630B0FD7F147E001203E6750802F6
:1001A60020B2147F147E001203E630B2FD7F147E67
:1001B600001203E675080320B3147F147E001203B1
:1001C600E630B3FD7F147E001203E6750804AF081F
:0101D6002206
:06040F00C2A58F80D2A7F8
:080415007F027EEFDEFEDFFC3A
:01041D0022BC
:0A043600C2A612040FC2A7020415AB
:10037700CFCDCFCECCCE1201217C007D0A12012138
:04038700ED2430FF32
:0A038B00D2A612040FC2A702041547
:1003D000AE07BE0104ED148006BE0209ED243F44C1
:0603E00080FF120436222A
:1003FB007F381204367F0C1204367F061204367FC8
:04040B0001020436B0
:0A044000AC031203D0AF0402038BDB
:060332008B088A09890A0C
:100338001203D0E4FDAB08AA09A90A8D82758300CF
:0C0348001200E2FF600612038B0D80E93A
:010354002286
:0C0282007F0AEA24FFFDE434FFFC7E004C
:08028E008E0D8F0E8C0F8D10F8
:100296007F017E00E4FBEBC39510E50F6480F874E4
:0E02A6008098500AAC0DAD0E12010F0B80E8CF
:0102B4002227
:0403B3008A0A8B0B1C
:1003B7001203D0AA0CEAD39400400D120282AC0AB1
:0803C700AD0B1203771A80ED63
:0103CF00220B
:1001D7001203D0C3EA64809480400B7F2B12038BF9
:1001E7008A168B17800E7F2D12038BC3E49BF5179E
:1001F700E49AF516AA15EAD39400400D120282ACD0
:0902070016AD171203771A80ED01
:0102100022CB
:040211008A1A8B1B9F
:100215001203D0AA1CEAD3940040297F101202844D
:10022500AC1AAD1BCFCDCFCECCCE120121EF540FE2
:10023500FEC3940AEE5004243080022437FF1203D3
:040245008B1A80D1BF
:010249002292
:04024A008A1F8B205C
:10024E001203D0AA21EAD394004028EA24FFFDE449
:10025E0034FFFC7F027E0012028EAC1FAD20CFCD8C
:10026E00CFCECCCE120121EF54012430FF12038BDE
:03027E001A80D211
:01028100225A
:09045400D2A0D2A1C2A0C2A122D3
:07045D00C2A0D2A1D2A0222F
:0202E500AD0763
:1002E700E4FB74807E00A803088006CEA2E713CE45
:1002F70013D8F8FFEDF582EF558224FF92A0D2A123
:06030700C2A10BBB08DCE3
:01030D0022CD
:10039500E4FFD2A0FED2A130A00D7480A80608808B
:0D03A50002C313D8FC4207C2A10EBE08E837
:0103B2002228
:0A044A00EF24FF92A0D2A1C2A1226C
:0B041E00D2A0D2A1A2A0E433FFC2A133
:0104290022B0
:10030E008F088C098D0A1204547FA01202E5120484
:10031E001EAF081202E512041EAF0A1202E5120405
:04032E001E02045D4A
:0202B5008F08B0
:1002B7001204547FA01202E512041EAF081202E5D1
:1002C70012041E1204547FA11202E512041E120327
:0D02D700958F097F0112044A12045DAF09E2
:0102E40022F7
:0300000002042ACD
:0C042A00787FE4F6D8FD75812402000301
:1000E200BB010CE58229F582E5833AF583E02250D3
:1000F20006E92582F8E622BBFE06E92582F8E2221D
:0D010200E58229F582E5833AF583E4932236
:10010F00EF8DF0A4A8F0CF8CF0A428CE8DF0A42E04
:02011F00FE22BE
:10012100BC000BBE0029EF8DF084FFADF022E4CCC2
:10013100F875F008EF2FFFEE33FEEC33FCEE9DEC8B
:10014100984005FCEE9DFE0FD5F0E9E4CEFD22EDD1
:10015100F8F5F0EE8420D21CFEADF075F008EF2F1B
:10016100FFED33FD4007985006D5F0F222C398FD0C
:050171000FD5F0EA22A9
:00000001FF
