:0602B40048656C6C6F0050
:1002730012025F7BFF7A0279B47D017F011201D6FE
:0202830080FEFB
:10024A00EF1FAC0670011E4C600A7D027CC7DCFE03
:04025A00DDFC80EC5B
:01025E00227D
:10009700E4F52520B1137F14FE12024A30B1FD7F2B
:1000A700147E0012024A75250120B0147F147E00C9
:1000B70012024A30B0FD7F147E0012024A752502F3
:1000C70020B2147F147E0012024A30B2FD7F147EE4
:1000D7000012024A75250320B3147F147E00120212
:1000E7004A30B3FD7F147E0012024A752504AF25FE
:0100F70022E6
:06028500C2A58F80D2A784
:08028B007F027EEFDEFEDFFCC6
:010293002248
:0A02A000C2A6120285C2A702028B5B
:1001F900CFCDCFCECCCE1200427C007D0A12004278
:04020900ED2430FFB1
:0A020D00D2A6120285C2A702028BDE
:10023400AE07BE0104ED148006BE0209ED243F445E
:0602440080FF1202A0225F
:10025F007F381202A07F0C1202A07F061202A07F2D
:04026F00010202A0E6
:0A02AA00AC03120234AF0402020D8F
:0601D6008B228A2389241C
:1001DC00120234E4FDAB22AA23A9248D827583007C
:0C01EC00120003FF600612020D0D80E9F6
:0101F80022E4
:0C01A3007F0AEA24FFFDE434FFFC7E002C
:0801AF008E1E8F1F8C208D2194
:1001B7007F017E00E4FBEBC39521E5206480F874A2
:0E01C7008098500AAC1EAD1F1200300B80E86D
:0101D5002207
:040217008A118B12AB
:10021B00120234AA13EAD39400400D1201A3AC11BD
:08022B00AD121201F91A80ED79
:0102330022A8
:1000F800120234C3EA64809480400B7F2B12020DF5
:100108008A0D8B0E800E7F2D12020DC3E49BF50E17
:10011800E49AF50DAA0CEAD39400400D1201A3ACA1
:090128000DAD0E1201F91A80ED73
:0101310022AB
:040132008A168B1787
:10013600120234AA18EAD3940040297F101201A5AE
:10014600AC16AD17CFCDCFCECCCE120042EF540FAA
:10015600FEC3940AEE5004243080022437FF1202B4
:040166000D1A80D11D
:01016A002272
:04016B008A1B8B1C44
:10016F00120234AA1DEAD394004028EA24FFFDE4CA
:10017F0034FFFC7F027E001201AFAC1BAD1CCFCD54
:10018F00CFCECCCE120042EF54012430FF12020D1D
:03019F001A80D2F1
:0101A200223A
:0300000002029465
:0C029400787FE4F6D8FD75812502027326
:10000300BB010CE58229F582E5833AF583E02250B2
:1000130006E92582F8E622BBFE06E92582F8E222FC
:0D002300E58229F582E5833AF583E4932216
:10003000EF8DF0A4A8F0CF8CF0A428CE8DF0A42EE4
:02004000FE229E
:10004200BC000BBE0029EF8DF084FFADF022E4CCA2
:10005200F875F008EF2FFFEE33FEEC33FCEE9DEC6B
:10006200984005FCEE9DFE0FD5F0E9E4CEFD22EDB1
:10007200F8F5F0EE8420D21CFEADF075F008EF2FFB
:10008200FFED33FD4007985006D5F0F222C398FDEC
:050092000FD5F0EA2289
:00000001FF
